{
  "contractName": "SafeMath",
  "abi": [
    {
      "constant": true,
      "inputs": [
        {
          "internalType": "uint256",
          "name": "a",
          "type": "uint256"
        },
        {
          "internalType": "uint256",
          "name": "b",
          "type": "uint256"
        }
      ],
      "name": "mul",
      "outputs": [
        {
          "internalType": "uint256",
          "name": "c",
          "type": "uint256"
        }
      ],
      "payable": false,
      "stateMutability": "pure",
      "type": "function"
    },
    {
      "constant": true,
      "inputs": [
        {
          "internalType": "uint256",
          "name": "a",
          "type": "uint256"
        },
        {
          "internalType": "uint256",
          "name": "b",
          "type": "uint256"
        }
      ],
      "name": "div",
      "outputs": [
        {
          "internalType": "uint256",
          "name": "c",
          "type": "uint256"
        }
      ],
      "payable": false,
      "stateMutability": "pure",
      "type": "function"
    }
  ],
  "bytecode": "0x61015f610026600b82828239805160001a60731461001957fe5b30600052607381538281f3fe73000000000000000000000000000000000000000030146080604052600436106100405760003560e01c8063a391c15b14610045578063c8a4ac9c14610091575b600080fd5b61007b6004803603604081101561005b57600080fd5b8101908080359060200190929190803590602001909291905050506100dd565b6040518082815260200191505060405180910390f35b6100c7600480360360408110156100a757600080fd5b8101908080359060200190929190803590602001909291905050506100fd565b6040518082815260200191505060405180910390f35b60008082116100eb57600080fd5b8183816100f457fe5b04905092915050565b60008183029050600083148061011b57508183828161011857fe5b04145b61012457600080fd5b9291505056fea265627a7a72315820b34f95942f07f03925962ad1c331e840524ee33ebcdd95445e4670f6d06be56864736f6c63430005100032",
  "source": "// SPDX-License-Identifier: GPL-3.0\npragma solidity ^0.5.0;\n\nlibrary SafeMath {\n    function sub(uint256 a, uint256 b) internal pure returns (uint256) {\n      assert(b <= a);\n      return a - b;\n    }\n\n    function add(uint256 a, uint256 b) internal pure returns (uint256) {\n      uint256 c = a + b;\n      assert(c >= a);\n      return c;\n    }\n    \n    function mul(uint a, uint b) public pure returns (uint c ) {\n        c = a * b; \n        require(a == 0 || c / a == b);\n    } \n    \n    function div(uint a, uint b) public pure returns (uint c ) {\n        require(b > 0);\n        c = a / b;\n    }\n}\n\ncontract AdExToken {\n    using SafeMath for uint256;\n\n    string public constant name = \"AdEx\";\n    string public constant symbol = \"ADX\";\n    uint8  public constant decimals = 18;\n\n    uint256 private constant totalSupply_ = 100000000;\n    uint256 private constant hardCap = 40000;\n    uint256 private startDate;\n    uint256 private constant startDayEndDayDiff = 30;\n    \n    uint256 private tokenSupply = 80000000;\n    uint256 private bountySupply = 2000000;\n    uint256 private discoverySupply = 2000000;\n    uint256 private teamSupply = 10000000;\n    uint256 private advisorsSupply = 6000000;\n    \n    address private master;\n\n    mapping(address => uint256) public balances;\n    mapping(address => mapping (address => uint256)) public allowed;\n    \n    mapping(address => uint256) tokenSupplyAllowance;\n    mapping(address => uint256) bountySupplyAllowance;\n    mapping(address => uint256) discoverySupplyAllowance;\n    mapping(address => uint256) teamSupplyAllowance;\n    mapping(address => uint256) advisorsSupplyAllowance;\n\n    constructor() public{\n        balances[msg.sender] = totalSupply_;\n        startDate = block.timestamp;\n        master = msg.sender;\n    }\n\n    event Approval(address indexed tokenOwner, address indexed spender, uint tokens);\n    event Transfer(address indexed from, address indexed to, uint tokens);\n    event Sell(address _buyer, uint256 _amount);\n    \n    modifier daylimit(){\n        require(getDayDifference() >= startDayEndDayDiff);\n        _;\n    }\n    \n    modifier ownable() {\n        require(master == msg.sender);\n        _;\n    }\n    \n    function totalSupply() public pure returns (uint256) {\n        return totalSupply_;\n    }\n\n    function balanceOf(address tokenOwner) public view returns (uint256) {\n        return balances[tokenOwner];\n    }\n\n    function getHardCap() public pure returns (uint256){\n        return hardCap; \n    }\n\n\tfunction getCurrentTime() public view returns (uint256){\n        return block.timestamp;\n    }\n\n\tfunction getStartDate() public view returns (uint256){\n        return startDate;\n    }\n\n\tfunction getStartDayEndDayDiff() public pure returns (uint256){ \n        return startDayEndDayDiff;\n    }\n\t\n\n    function transfer(address receiver, uint256 numTokens) public returns (bool) {\n        require(numTokens <= balances[msg.sender]);\n        balances[msg.sender] = balances[msg.sender].sub(numTokens);\n        balances[receiver] = balances[receiver].add(numTokens);\n        emit Transfer(msg.sender, receiver, numTokens);\n        return true;\n    }\n\n    function approve(address delegate, uint256 numTokens) public returns (bool) {\n        allowed[msg.sender][delegate] = numTokens;\n        emit Approval(msg.sender, delegate, numTokens);\n        return true;\n    }\n\n    function allowance(address owner, address delegate) public view returns (uint remaining) {\n        return allowed[owner][delegate];\n    }\n\n    function transferFrom(address owner, address buyer, uint256 numTokens) public returns (bool) {\n        require(numTokens <= balances[owner]);\n        require(numTokens <= allowed[owner][msg.sender]);\n\n        balances[owner] = balances[owner].sub(numTokens);\n        allowed[owner][msg.sender] = allowed[owner][msg.sender].sub(numTokens);\n        balances[buyer] = balances[buyer].add(numTokens);\n        emit Transfer(owner, buyer, numTokens);\n        return true;\n    }\n    \n    function getDayDifference() public view returns (uint256){\n        return (getCurrentTime().sub(startDate)).div(60).div(60).div(24);\n    }\n    \n    function convertEthToAdx(uint256 _amount)public pure returns (uint256){\n        return _amount.div(10 ** 18).mul(900);\n    }\n    \n    function getBonusTokens(uint256 _amount) private view returns (uint256){\n        uint256 diff = getDayDifference();\n        uint256 bonus = _amount;\n        if (diff == 0){\n            return bonus.mul(130).div(100);\n        }else if(diff >= 1 && diff < 7){\n            return bonus.mul(115).div(100);\n        }\n        return bonus;\n    }\n    \n    function buyADX() public payable daylimit returns(bool){\n        require(msg.value >= 10**decimals);\n        require(address(this).balance.div(10**decimals) <= hardCap);\n        uint256 receivedTokens = getBonusTokens(convertEthToAdx(msg.value)); \n        addTokenSupplyAllowance(msg.sender, receivedTokens);\n        transferFromTokenSupply(msg.sender, receivedTokens);\n        return true;\n    }\n    \n     function addTokenSupplyAllowance(address _newAddress, uint256 _amount) public returns(bool) {\n        tokenSupplyAllowance[_newAddress] = _amount;\n        return true;\n    }\n    function addBountySupplyAllowance(address _newAddress, uint256 _amount) public ownable returns(bool) {\n        bountySupplyAllowance[_newAddress] = _amount;\n        return true;\n    }\n    function addDiscoverySupplyAllowance(address _newAddress, uint256 _amount) public ownable returns(bool) {\n        discoverySupplyAllowance[_newAddress] = _amount;\n        return true;\n    }\n    function addTeamSupplyAllowance(address _newAddress, uint256 _amount) public ownable returns(bool) {\n        teamSupplyAllowance[_newAddress] = _amount;\n        return true;\n    }\n    function addAdvisorsSupplyAllowance(address _newAddress, uint256 _amount) public ownable returns(bool) {\n        advisorsSupplyAllowance[_newAddress] = _amount;\n        return true;\n    }\n    \n    \n    // Spend tokens for different allocations(Only if msg.sender has allowance)\n    function transferFromTokenSupply(address _to, uint256 _amount) private returns (bool){\n        require(tokenSupplyAllowance[_to] >= _amount);\n        require(tokenSupply >= _amount);\n        tokenSupply = tokenSupply.sub(_amount);\n\t\tbalances[_to] = balances[_to].add(_amount);\n\t\ttokenSupplyAllowance[_to] = tokenSupplyAllowance[_to].sub(_amount);\n\t\temit Transfer(address(this), _to, _amount);\n\t\treturn true;\n    }\n    function transferFromBountySupply(address _to, uint256 _amount) public daylimit returns (bool){\n        require(bountySupplyAllowance[_to] >= _amount);\n        require(bountySupply >= _amount);\n        bountySupply = bountySupply.sub(_amount);\n\t\tbalances[_to] = balances[_to].add(_amount);\n\t\tbountySupplyAllowance[_to] = bountySupplyAllowance[_to].sub(_amount);\n\t\temit Transfer(address(this), _to, _amount);\n\t\treturn true;\n    }\n    function transferFromDiscoverySupply(address _to, uint256 _amount) public daylimit returns (bool){\n        require(discoverySupplyAllowance[_to] >= _amount);\n        require(discoverySupply >= _amount);\n        discoverySupply = discoverySupply.sub(_amount);\n\t\tbalances[_to] = balances[_to].add(_amount);\n\t\tdiscoverySupplyAllowance[_to] = discoverySupplyAllowance[_to].sub(_amount);\n\t\temit Transfer(address(this), _to, _amount);\n\t\treturn true;\n    }\n    function transferFromTeamSupply(address _to, uint256 _amount) public daylimit returns (bool){\n        require(teamSupplyAllowance[_to] >= _amount);\n        require(teamSupply >= _amount);\n        teamSupply = teamSupply.sub(_amount);\n\t\tbalances[_to] = balances[_to].add(_amount);\n\t\tteamSupplyAllowance[_to] = teamSupplyAllowance[_to].sub(_amount);\n\t\temit Transfer(address(this), _to, _amount);\n\t\treturn true;\n    }\n    function transferFromAdvisorsSupply(address _to, uint256 _amount) public daylimit returns (bool){\n        require(advisorsSupplyAllowance[_to] >= _amount);\n        require(advisorsSupply >= _amount);\n        advisorsSupply = advisorsSupply.sub(_amount);\n\t\tbalances[_to] = balances[_to].add(_amount);\n\t\tadvisorsSupplyAllowance[_to] = advisorsSupplyAllowance[_to].sub(_amount);\n\t\temit Transfer(address(this), _to, _amount);\n\t\treturn true;\n    }\n    \n    \n}",
  "sourcePath": "/home/gergana/Work/blockchain/AdEx/contracts/adxv2.sol",
  "compiler": {
    "name": "solc",
    "version": "0.5.16+commit.9c3226ce.Emscripten.clang"
  },
  "schemaVersion": "3.4.3",
  "updatedAt": "2021-10-07T03:47:03.683Z",
  "devdoc": {
    "methods": {}
  },
  "userdoc": {
    "methods": {}
  }
}